{
  "contractName": "First",
  "abi": [
    {
      "inputs": [],
      "name": "showMessage",
      "outputs": [
        {
          "internalType": "string",
          "name": "",
          "type": "string"
        }
      ],
      "stateMutability": "view",
      "type": "function"
    },
    {
      "inputs": [],
      "name": "showAge",
      "outputs": [
        {
          "internalType": "int256",
          "name": "",
          "type": "int256"
        }
      ],
      "stateMutability": "view",
      "type": "function"
    }
  ],
  "bytecode": "0x608060405234801561001057600080fd5b506101e2806100206000396000f3fe608060405234801561001057600080fd5b50600436106100365760003560e01c806307b6ad6a1461003b5780638125ceb214610059575b600080fd5b610043610077565b60405161005091906100d6565b60405180910390f35b610061610080565b60405161006e919061018a565b60405180910390f35b6000600e905090565b60606040518060400160405280600b81526020017f48656c6c6f20576f726c64000000000000000000000000000000000000000000815250905090565b6000819050919050565b6100d0816100bd565b82525050565b60006020820190506100eb60008301846100c7565b92915050565b600081519050919050565b600082825260208201905092915050565b60005b8381101561012b578082015181840152602081019050610110565b8381111561013a576000848401525b50505050565b6000601f19601f8301169050919050565b600061015c826100f1565b61016681856100fc565b935061017681856020860161010d565b61017f81610140565b840191505092915050565b600060208201905081810360008301526101a48184610151565b90509291505056fea26469706673582212202f5c277a9e1376c8fbb8f76dcca6fe0e0d0b6d0bc06e6f46938ad0e97766a15564736f6c634300080a0033",
  "immutableReferences": {},
  "source": "// SPDX-License-Identifier: MIT\r\npragma solidity ^0.8.7;\r\n\r\ncontract First {\r\n    function showMessage() public view returns (string memory) {\r\n        return \"Hello World\";\r\n    }\r\n\r\n    function showAge() public view returns(int){\r\n        return 14;\r\n    }\r\n}\r\n",
  "sourcePath": "C:\\_LEARNING\\getting-started-with-truffle\\contracts\\First.sol",
  "compiler": {
    "name": "solc",
    "version": "0.8.10+commit.fc410830.Emscripten.clang"
  },
  "schemaVersion": "3.4.4",
  "updatedAt": "2022-01-05T09:55:30.716Z",
  "devdoc": {
    "kind": "dev",
    "methods": {},
    "version": 1
  },
  "userdoc": {
    "kind": "user",
    "methods": {},
    "version": 1
  }
}